{
	"data": {
		"bytecode": {
			"linkReferences": {},
			"object": "60806040526004600055600660015534801561001a57600080fd5b506102998061002a6000396000f3fe608060405234801561001057600080fd5b506004361061002b5760003560e01c80633da0ac7914610030575b600080fd5b61003861003a565b005b60015460005410610080576040517f08c379a0000000000000000000000000000000000000000000000000000000008152600401610077906101b7565b60405180910390fd5b600154600054116100c6576040517f08c379a00000000000000000000000000000000000000000000000000000000081526004016100bd90610177565b60405180910390fd5b6001546000541461010c576040517f08c379a000000000000000000000000000000000000000000000000000000000815260040161010390610197565b60405180910390fd5b565b600061011b6005836101d7565b9150610126826101e8565b602082019050919050565b600061013e6006836101d7565b915061014982610211565b602082019050919050565b6000610161600d836101d7565b915061016c8261023a565b602082019050919050565b600060208201905081810360008301526101908161010e565b9050919050565b600060208201905081810360008301526101b081610131565b9050919050565b600060208201905081810360008301526101d081610154565b9050919050565b600082825260208201905092915050565b7f457272203e000000000000000000000000000000000000000000000000000000600082015250565b7f457272203d3d0000000000000000000000000000000000000000000000000000600082015250565b7f546861742069732066616c73650000000000000000000000000000000000000060008201525056fea264697066735822122033ec7617d5cdbdfeaad06b18226f0c945dbb31403e9188a410a2764e3a5021ca64736f6c63430008070033",
			"opcodes": "PUSH1 0x80 PUSH1 0x40 MSTORE PUSH1 0x4 PUSH1 0x0 SSTORE PUSH1 0x6 PUSH1 0x1 SSTORE CALLVALUE DUP1 ISZERO PUSH2 0x1A JUMPI PUSH1 0x0 DUP1 REVERT JUMPDEST POP PUSH2 0x299 DUP1 PUSH2 0x2A PUSH1 0x0 CODECOPY PUSH1 0x0 RETURN INVALID PUSH1 0x80 PUSH1 0x40 MSTORE CALLVALUE DUP1 ISZERO PUSH2 0x10 JUMPI PUSH1 0x0 DUP1 REVERT JUMPDEST POP PUSH1 0x4 CALLDATASIZE LT PUSH2 0x2B JUMPI PUSH1 0x0 CALLDATALOAD PUSH1 0xE0 SHR DUP1 PUSH4 0x3DA0AC79 EQ PUSH2 0x30 JUMPI JUMPDEST PUSH1 0x0 DUP1 REVERT JUMPDEST PUSH2 0x38 PUSH2 0x3A JUMP JUMPDEST STOP JUMPDEST PUSH1 0x1 SLOAD PUSH1 0x0 SLOAD LT PUSH2 0x80 JUMPI PUSH1 0x40 MLOAD PUSH32 0x8C379A000000000000000000000000000000000000000000000000000000000 DUP2 MSTORE PUSH1 0x4 ADD PUSH2 0x77 SWAP1 PUSH2 0x1B7 JUMP JUMPDEST PUSH1 0x40 MLOAD DUP1 SWAP2 SUB SWAP1 REVERT JUMPDEST PUSH1 0x1 SLOAD PUSH1 0x0 SLOAD GT PUSH2 0xC6 JUMPI PUSH1 0x40 MLOAD PUSH32 0x8C379A000000000000000000000000000000000000000000000000000000000 DUP2 MSTORE PUSH1 0x4 ADD PUSH2 0xBD SWAP1 PUSH2 0x177 JUMP JUMPDEST PUSH1 0x40 MLOAD DUP1 SWAP2 SUB SWAP1 REVERT JUMPDEST PUSH1 0x1 SLOAD PUSH1 0x0 SLOAD EQ PUSH2 0x10C JUMPI PUSH1 0x40 MLOAD PUSH32 0x8C379A000000000000000000000000000000000000000000000000000000000 DUP2 MSTORE PUSH1 0x4 ADD PUSH2 0x103 SWAP1 PUSH2 0x197 JUMP JUMPDEST PUSH1 0x40 MLOAD DUP1 SWAP2 SUB SWAP1 REVERT JUMPDEST JUMP JUMPDEST PUSH1 0x0 PUSH2 0x11B PUSH1 0x5 DUP4 PUSH2 0x1D7 JUMP JUMPDEST SWAP2 POP PUSH2 0x126 DUP3 PUSH2 0x1E8 JUMP JUMPDEST PUSH1 0x20 DUP3 ADD SWAP1 POP SWAP2 SWAP1 POP JUMP JUMPDEST PUSH1 0x0 PUSH2 0x13E PUSH1 0x6 DUP4 PUSH2 0x1D7 JUMP JUMPDEST SWAP2 POP PUSH2 0x149 DUP3 PUSH2 0x211 JUMP JUMPDEST PUSH1 0x20 DUP3 ADD SWAP1 POP SWAP2 SWAP1 POP JUMP JUMPDEST PUSH1 0x0 PUSH2 0x161 PUSH1 0xD DUP4 PUSH2 0x1D7 JUMP JUMPDEST SWAP2 POP PUSH2 0x16C DUP3 PUSH2 0x23A JUMP JUMPDEST PUSH1 0x20 DUP3 ADD SWAP1 POP SWAP2 SWAP1 POP JUMP JUMPDEST PUSH1 0x0 PUSH1 0x20 DUP3 ADD SWAP1 POP DUP2 DUP2 SUB PUSH1 0x0 DUP4 ADD MSTORE PUSH2 0x190 DUP2 PUSH2 0x10E JUMP JUMPDEST SWAP1 POP SWAP2 SWAP1 POP JUMP JUMPDEST PUSH1 0x0 PUSH1 0x20 DUP3 ADD SWAP1 POP DUP2 DUP2 SUB PUSH1 0x0 DUP4 ADD MSTORE PUSH2 0x1B0 DUP2 PUSH2 0x131 JUMP JUMPDEST SWAP1 POP SWAP2 SWAP1 POP JUMP JUMPDEST PUSH1 0x0 PUSH1 0x20 DUP3 ADD SWAP1 POP DUP2 DUP2 SUB PUSH1 0x0 DUP4 ADD MSTORE PUSH2 0x1D0 DUP2 PUSH2 0x154 JUMP JUMPDEST SWAP1 POP SWAP2 SWAP1 POP JUMP JUMPDEST PUSH1 0x0 DUP3 DUP3 MSTORE PUSH1 0x20 DUP3 ADD SWAP1 POP SWAP3 SWAP2 POP POP JUMP JUMPDEST PUSH32 0x457272203E000000000000000000000000000000000000000000000000000000 PUSH1 0x0 DUP3 ADD MSTORE POP JUMP JUMPDEST PUSH32 0x457272203D3D0000000000000000000000000000000000000000000000000000 PUSH1 0x0 DUP3 ADD MSTORE POP JUMP JUMPDEST PUSH32 0x546861742069732066616C736500000000000000000000000000000000000000 PUSH1 0x0 DUP3 ADD MSTORE POP JUMP INVALID LOG2 PUSH5 0x6970667358 0x22 SLT KECCAK256 CALLER 0xEC PUSH23 0x17D5CDBDFEAAD06B18226F0C945DBB31403E9188A410A2 PUSH23 0x4E3A5021CA64736F6C6343000807003300000000000000 "
		},
		"gasEstimates": {
			"creation": {
				"codeDepositCost": "133000",
				"executionCost": "44389",
				"totalCost": "177389"
			},
			"external": {
				"compare()": "13080"
			}
		},
		"methodIdentifiers": {
			"compare()": "3da0ac79"
		}
	},
	"abi": [
		{
			"inputs": [],
			"name": "compare",
			"outputs": [],
			"stateMutability": "view",
			"type": "function"
		}
	]
}